:100000000C9434000C9451000C9451000C94510049
:100010000C9451000C9451000C9451000C9451001C
:100020000C9451000C9451000C9451000C9451000C
:100030000C9451000C9451000C9451000C945100FC
:100040000C9451000C9451000C949D000C94AD0044
:100050000C94D6000C9451000C9451000C94510057
:100060000C9451000C94510011241FBECFEFD4E02A
:10007000DEBFCDBF11E0A0E0B1E0EEE1F2E002C0F2
:1000800005900D92A830B107D9F711E0A8E0B1E0D2
:1000900001C01D92AA34B107E1F70E94E1000C945F
:1000A0000D010C94000090910801292F2F5F20343E
:1000B00008F020E030910901231711F48FEF089523
:1000C000E92FF0E0E65FFE4F8083391741F45A9A3A
:1000D0008093C6008091C10080628093C10020930C
:1000E000080180E008950F931F93CF93DF93FC01E5
:1000F0004081082FEC0107C0842F0E9453002196F5
:10010000882331F44881CE01801B182F4423A1F7A6
:10011000812FDF91CF911F910F91089582E08093FD
:10012000C00088ED8093C10085E090E09093C50009
:100130008093C4005A98529A08951F920F920FB656
:100140000F9211248F938091C0008091C6008F91EF
:100150000F900FBE0F901F9018951F920F920FB621
:100160000F9211248F93EF93FF93E0910901EF5FBA
:10017000E03408F0E0E0E093090180910801E8171D
:1001800041F0F0E0E65FFE4F80818093C6005A9A0E
:1001900005C08091C1008F7D8093C100FF91EF91D8
:1001A0008F910F900FBE0F901F9018951F920F9276
:1001B0000FB60F9211245A980F900FBE0F901F90F8
:1001C0001895FF920F931F93CF93DF9388B182709E
:1001D00088B9399A0E948E007894C0E0D0E082E01D
:1001E000F82E00E011EE2196CA30D10514F0C0E0DF
:1001F000D0E080E091E00E9473009E01205D822F9C
:100200000E94530085E091E00E94730088B18F2521
:0E02100088B9C8010197F1F7E6CFF894FFCF47
:08021E0041686F6A000A0D003F
:00000001FF
