:100000000C9434000C9451000C9451000C94510049
:100010000C9451000C9451000C9451000C9451001C
:100020000C9451000C9451000C9451000C9451000C
:100030000C9451000C9451000C9451000C945100FC
:100040000C9451000C9451000C94E1000C94AD0000
:100050000C94D6000C9451000C9451000C94510057
:100060000C9451000C94510011241FBECFEFD4E02A
:10007000DEBFCDBF11E0A0E0B1E0EAEEF2E002C0E9
:1000800005900D92A230B107D9F711E0A2E0B1E0DE
:1000900001C01D92A533B107E1F70E9453000C94F3
:1000A00073010C94000088B1827088B9399A0E945B
:1000B0009B00789420E031EEC9010197F1F7FCCF65
:1000C00090910201292F2F5F203208F020E030911B
:1000D0000301231711F48FEF0895E92FF0E0EB5E91
:1000E000FE4F8083391741F45A9A8093C60080915D
:1000F000C10080628093C1002093020180E00895D6
:100100000F931F93CF93DF93FC014081082FEC01E5
:1001100007C0842F0E9460002196882331F4488113
:10012000CE01801B182F4423A1F7812FDF91CF919F
:100130001F910F91089582E08093C00088ED809315
:10014000C10084E28093C20082E090E09093C500F9
:100150008093C4005A98529A08951F920F920FB636
:100160000F9211248F93EF93FF93E0910301EF5FC0
:10017000E03208F0E0E0E093030180910201E8172B
:1001800041F0F0E0EB5EFE4F80818093C6005A9A0A
:1001900005C08091C1008F7D8093C100FF91EF91D8
:1001A0008F910F900FBE0F901F9018951F920F9276
:1001B0000FB60F9211245A980F900FBE0F901F90F8
:1001C00018951F920F920FB60F9211242F933F9301
:1001D0004F935F936F937F938F939F93AF93BF934F
:1001E000EF93FF938091C0009091C60060E08C7106
:1001F00009F061E0892F0E943F01FF91EF91BF91CB
:10020000AF919F918F917F916F915F914F913F91AE
:100210002F910F900FBE0F901F901895982F80531D
:100220008A3040F0892F8154863010F08FEF089586
:10023000892F8753089588B192E0892788B9089556
:10024000FC01DC01129691818081980F22E030E060
:1002500070E0AB014150504004C08D91980F2F5F6A
:100260003F4F24173507CCF3A60FB71F11978C917A
:10027000981721F488B192E0892788B908950F93DF
:100280001F93662311F48A3329F41092040110920B
:10029000000126C08D3039F485E091E060910401C1
:1002A0000E9420011DC08A30D9F010910001103841
:1002B00019F40E940E0112C000910401003168F48B
:1002C0000E940E01E02FF0E0EB5FFE4F1295107FD1
:1002D000182B10830F5F0093040180E880930001C6
:0A02E0001F910F910895F894FFCFCD
:0202EA00800092
:00000001FF
