:100000000C9434000C9451000C9451000C94510049
:100010000C9451000C9451000C9451000C9451001C
:100020000C9451000C9451000C9451000C9451000C
:100030000C9451000C9451000C9451000C945100FC
:100040000C9451000C9451000C94E7000C94AE00F9
:100050000C94D7000C9451000C9451000C94510056
:100060000C9451000C94510011241FBECFEFD4E02A
:10007000DEBFCDBF11E0A0E0B1E0EAEEF2E002C0E9
:1000800005900D92A230B107D9F711E0A2E0B1E0DE
:1000900001C01D92A536B107E1F70E9453000C94F0
:1000A00073010C94000088B1827088B9399A0E945B
:1000B0009C00789420E031EEC9010197F1F7FCCF64
:1000C00090910201292F2F5F203208F020E030911B
:1000D0000301231711F48FEF0895E92FF0E0EB5B94
:1000E000FE4F8083391721F45A9A8093C60005C0C9
:1000F0008091C10080628093C1002093020180E062
:1001000008950F931F93CF93DF93FC014081082F35
:10011000EC0107C0842F0E9460002196882331F4EF
:100120004881CE01801B182F4423A1F7812FDF9136
:10013000CF911F910F91089582E08093C00088EDC8
:100140008093C10084E28093C20082E090E09093AB
:10015000C5008093C4005A98529A08951F920F9236
:100160000FB60F9211248F93EF93FF93E091030149
:10017000EF5FE03208F0E0E0E093030180910201DC
:10018000E81741F05A9AF0E0EB5BFE4F80818093D4
:10019000C60005C08091C1008F7D8093C100FF9192
:1001A000EF918F910F900FBE0F901F9018951F9297
:1001B0000F920FB60F9211248F938091C00085FD8E
:1001C0005A988F910F900FBE0F901F9018951F9205
:1001D0000F920FB60F9211242F933F934F935F937B
:1001E0006F937F938F939F93AF93BF93EF93FF93FF
:1001F0008091C0009091C60060E08C7109F061E0D0
:10020000892F0E944101FF91EF91BF91AF919F9182
:100210008F917F916F915F914F913F912F910F90AF
:100220000FBE0F901F901895982F80538A3040F082
:10023000892F8154863010F08FEF0895892F8753CE
:10024000089588B192E0892788B90895FC01DC01FE
:10025000129621818081280F82E090E070E0615049
:10026000704003C0230F119601963C9186179707A3
:10027000CCF32195231721F488B192E0892788B91E
:1002800008950F931F93662311F48A3319F4109283
:1002900004011CC08A30F1F08D3011F11091000181
:1002A000103819F40E94140112C0009104010034A6
:1002B00068F40E941401E02FF0E0EB5FFE4F12950E
:1002C000107F182B10830F5F0093040180E8809348
:1002D000000106C085E091E0609104010E942601C2
:0A02E0001F910F910895F894FFCFCD
:0202EA00800092
:00000001FF
